:100000000C9434000C9451000C9451000C94510049
:100010000C9451000C9451000C9451000C9451001C
:100020000C9451000C9451000C9451000C9451000C
:100030000C9451000C9451000C9451000C945100FC
:100040000C9451000C9451000C9467030C948D0394
:100050000C9451000C9451000C9451000C945100DC
:100060000C9451000C94510011241FBECFEFD8E026
:10007000DEBFCDBF11E0A0E0B1E0E0E6F4E102C0F8
:1000800005900D92AA38B107D9F721E0AAE8B1E0AE
:1000900001C01D92A53DB207E1F70E9456050C94E0
:1000A0002E0A0C9400006AE070E00E94120630E014
:1000B00020E06217730731F430E020E082179307E5
:1000C00051F40895EFE3FCE93197F1F700C0000027
:1000D0002F5F3F4FEECFEFE9FFE03197F1F700C020
:1000E00000002F5F3F4FEACFCF93DF93EC01D7FDA6
:1000F00033C0C830D105DCF589B190E00C2E02C0C8
:10010000959587950A94E2F780FF3EC08FE59AEEB9
:100110000197F1F700C0000089B190E00C2E02C0F9
:10012000959587950A94E2F79C012170332780FF0B
:100130002BC041E050E002C0440F551FCA95E2F7C2
:1001400080E090E0B90129B130E024233523232B4E
:10015000C9F4DF91CF9108952D9A80E797E10E942D
:1001600053002D9880E797E10E945300C0CF2D9A4D
:1001700088E59BE10E9453002D9888E59BE10E9451
:100180005300B7CFCB01DFCF80E090E0E2CFCF9339
:10019000DF93EC01D7FD22C0C830D10554F529B159
:1001A00030E00C2E02C0359527950A94E2F7C9017C
:1001B0008170992720FF0FC08FE59AEE0197F1F724
:1001C00000C0000089B190E002C095958795CA955E
:1001D000E2F781709927DF91CF9108952D9A80E7FA
:1001E00097E10E9453002D9880E797E10E94530009
:1001F000D1CF2D9A88E59BE10E9453002D9888E588
:100200009BE10E945300C8CF62E080E00E94A904F5
:1002100000C062E080E00C94AC04CF93C82F8091C2
:100220008A01662309F495C0816080938A018091D8
:100230008A018D7F80938A0160918A0180E00E940B
:10024000380480918A018F7780938A0180918A0196
:100250008F7B80938A0180918A018F7D80938A01B0
:1002600080918A018F7E80938A01C7FF05C08091AB
:100270008A01806880938A01C6FF05C080918A0147
:10028000806480938A01C5FF05C080918A018062E5
:1002900080938A01C4FF05C080918A0180618093A8
:1002A0008A0160918A0180E00E9438040E94040162
:1002B00080918A018F7780938A0180918A018F7B58
:1002C00080938A0180918A018F7D80938A01809139
:1002D0008A018F7E80938A01C3FF05C080918A01C5
:1002E000806880938A01C2FF05C080918A01806482
:1002F00080938A01C1FF05C080918A01806280934A
:100300008A01C0FF05C080918A01806180938A01C3
:1003100060918A0180E00E9438040E94040180916B
:100320008A01806180938A0180918A018062809332
:100330008A0180918A01806480938A0180918A0178
:10034000806880938A0160918A0180E0CF910C944B
:1003500038048E7F6ACFCF9380918A018E7F8093FD
:100360008A0180918A01826080938A0160918A016A
:1003700080E00E94380462E080E00E94A90400C08E
:1003800064E080E00E94BF04C1E08111C0E0C2953A
:10039000C07F65E080E00E94BF04811101C0C0629F
:1003A00066E080E00E94BF04811101C0C06467E084
:1003B00080E00E94BF04811101C0C06862E080E05B
:1003C0000E94AC0400C062E080E00E94A90400C06A
:1003D00064E080E00E94BF04811101C0C16065E05B
:1003E00080E00E94BF04811101C0C26066E080E02D
:1003F0000E94BF04811101C0C46067E080E00E94D8
:10040000BF04811101C0C86062E080E00E94AC04BA
:100410008C2FCF9108950E94AB0187FDFCCF88E01F
:1004200090E00197F1F70C94AB01CF93C82F0E9495
:100430000B0260E08C2FCF910C940D01CF93C82F4D
:100440000E940B0261E08C2FCF910C940D01611181
:1004500003C080580C941502613011F48054FACF17
:10046000623011F48C56F6CF8C52F4CF0E940B02FE
:1004700090E0089581E00C941502882351F080915A
:100480008A01877F80938A0160918A0180E00C94C1
:10049000380480918A018860F5CF82E00C941502BF
:1004A000CF93C82F0E940B02CA30A1F4843160F0B0
:1004B00090EC980F943150F084518C3248F080E0E9
:1004C0008058CF910C94150280E4FACF84E1F8CFE4
:1004D00084E5F6CF803559F460E080EC0E940D0190
:1004E0000E940B0261E08C2FCF910C940D0180399A
:1004F00019F460E084E9F2CF843619F460E084ED09
:10050000EDCF843A69F760E080E8E8CFCF93C0E4AC
:100510008C2F0E94150280E00E945002CF5FC038ED
:10052000B9F7CF9108950F931F93CF93DF938B016A
:100530008830A8F4885F880F880F880F0E94150202
:10054000E801085F1F4F89910E945002C017D10730
:10055000D1F780E0DF91CF911F910F91089581E055
:10056000F9CFCF93DF93EC018991811103C0DF9123
:10057000CF9108950E945002CE01F5CFCF93DF9323
:10058000EC01FE0184912196811103C0DF91CF918E
:1005900008950E945002F5CF1F93CF93DF93182F39
:1005A0000E94160410928A0160918A0180E00E94E4
:1005B000380480E09AEF0197F1F780918A01806218
:1005C00080938A0180918A01806180938A01609181
:1005D0008A0180E00E9438040E94040180E09EE4C9
:1005E0000197F1F70E940401C0E0D1E0CE0101972C
:1005F000F1F70E940401CE010197F1F780918A0181
:100600008F7E80938A0160918A0180E00E94380485
:100610000E9404012197F1F788E20E94150288E008
:100620000E9415020E943A0286E00E941502812F64
:10063000DF91CF911F910C941502682F80E00E94EA
:10064000270281E791E00C94B102CF92DF92EF9202
:10065000FF920F931F93CF93DF93D82EC92E9F93B2
:100660008F9386E8E82E81E0F82EFF92EF921F929A
:100670001F921F921F920E944E078C010F5F1F4F07
:10068000C8010E942606D82FC92FCF92DF92FF9271
:10069000EF921F930F939F938F930E944E078D2F7E
:1006A0009C2F0E94B1028DB79EB740960FB6F8946A
:1006B0009EBF0FBE8DBF8D2F9C2FDF91CF911F91BD
:1006C0000F91FF90EF90DF90CF900C94BC062F938A
:1006D0002FB72F938F939F93EF93FF938091C00039
:1006E0009091C600E0918D01EF5FEF7120918C0138
:1006F0002E1789F08871E0938D01F0E0E057FE4FEE
:10070000908380938B01FF91EF919F918F912F9117
:100710002FBF2F91189582E0F4CF8F938FB78F93CF
:100720009F93EF93FF9390918F0180918E01981783
:1007300099F0E0918E01EF5FEF71E0938E01F0E0B0
:10074000E055FE4F80818093C600FF91EF919F910D
:100750008F918FBF8F9118958091C1008F7D80936D
:10076000C100F3CF9C0110928F0110928E01109264
:100770008D0110928C0197FF04C082E08093C0002D
:100780003F773093C5002093C40088E98093C1006F
:1007900086E08093C200089590918D0180918C0134
:1007A000981791F0E0918C01EF5FEF71E0938C016D
:1007B000F0E0E057FE4F208180918B0190E0982F70
:1007C0008827820F911D089580E091E0089590910F
:1007D0008F019F5F9F7120918E012917E1F3E92F0F
:1007E000F0E0E055FE4F808390938F018091C1002F
:1007F00080628093C1000895CF93DF93EC018991CB
:10080000811103C0DF91CF9108950E94E703F7CFD4
:10081000CF93DF93EC01FE0184912196811103C0F7
:10082000DF91CF9108950E94E703F5CF0E94D7048E
:1008300085E38A95F1F700001092D00108958111A7
:1008400003C08091D00108958FEF089581110EC0EB
:10085000683060F48091D001082E000C990B02C022
:10086000959587956A95E2F7817008958FEF0895C1
:10087000CF93C62F81110DC06093D0018EE40E94EA
:10088000DD048C2F0E9431050E94290580E0CF9164
:1008900008958FEFFCCFCF93811137C0E62FE41B73
:1008A000FF0BCF018F3FFFEF9F077CF16150673057
:1008B00060F5442351F15091D001BC016F5F7F4F2F
:1008C000022E000C330B062E01C0220F0A94EAF709
:1008D00081E090E002C0880F991F4A95E2F70197E6
:1008E00001C0880F6A95EAF7C52FC227C823C5271C
:1008F000C093D0018EE40E94DD048C2F0E9431054C
:100900000E94290580E0CF9108958FEFFCCFCF930F
:1009100081111DC06830D8F4C091D00181E090E011
:1009200001C0880F6A95EAF7442371F0C82BC09381
:10093000D0018EE40E94DD048C2F0E9431050E94BC
:10094000290580E0CF9108958095C823F0CF8FEFDF
:10095000F9CF41E00C94870440E00C948704CF93D6
:10096000CFEF811109C08FE40E94DD040E944C0585
:10097000C82FC0950E9429058C2FCF910895CF9341
:10098000C62F882319F08FEFCF9108956830D8F7DC
:1009900080E00E94AF048F3FB1F3082E000C990B4A
:1009A00002C095958795CA95E2F78170EDCF1092B8
:1009B000B90088E48093B800089594EA9093BC004D
:1009C0009091BC0097FFFCCF9091B900987F983030
:1009D00011F0903199F48093BB0084E88093BC00BF
:1009E0008091BC0087FFFCCF9091B900987F98312F
:1009F00019F081E0903409F480E0089581E00895D1
:100A000024EA34E844E92093BC009091BC0097FFAD
:100A1000FCCF9091B900987F983011F0903199F700
:100A20008093BB003093BC009091BC0097FFFCCF3B
:100A30009091B900987F903211F0983539F4409335
:100A4000BC009091BC0094FDFCCFDDCF08950C94C8
:100A5000DD0484E98093BC008091BC0084FDFCCF60
:100A600008958093BB0084E88093BC008091BC0013
:100A700087FFFCCF9091B900987F81E0983209F40C
:100A800080E0089584EC8093BC008091BC0087FFD7
:100A9000FCCF8091BB00089584E88093BC008091D6
:100AA000BC0087FFFCCF8091BB000895259A8CE0A5
:100AB0000E94CC0280E00E943D0260E080E00E9443
:100AC000270286E091E00E94B10290E080E00E945F
:100AD0001D0361E080E00E94270288E191E00E940E
:100AE000B10281E090E00E941D0362E080E00E947C
:100AF000270285E291E00E94B10282E090E00E942C
:100B00001D0363E080E00E94270283E391E00E94DE
:100B1000B10283E090E00E941D0360E080E00E944B
:100B2000270286E091E00E94B10261E080E00E942D
:100B3000270288E191E00E94B10262E080E00E9419
:100B4000270285E291E00E94B10263E080E00E940A
:100B5000270283E391E00E94B10288E893E10E94BA
:100B600053000E943A0261E080E00E94270280E484
:100B700091E00E94B10262E080E00E94270280E5DD
:100B800091E00E94B10281E0C82F80E0D82F10E0F0
:100B900000E086E090E00E947400892B99F00F5FDE
:100BA0001F4FC130D105B1F482E090E00E941D03D7
:100BB00062E080E00E94270283E391E00E94B1029C
:100BC000C2E0D0E087E090E00E947400892B09F039
:100BD00074CFDFCFC230D105A1F482E090E00E9453
:100BE0001D0362E080E00E942702C8010E942503E5
:100BF0008CE591E00E94B10283E0C82F80E0D82FFD
:100C0000E1CFC330D105F1F682E090E00E941D03F0
:100C100062E080E00E94270283E691E00E94B10238
:100C200081E0EBCFAA1BBB1B51E107C0AA1FBB1F72
:100C3000A617B70710F0A61BB70B881F991F5A9568
:100C4000A9F780959095BC01CD0108950F931F934E
:100C5000CF93DF939C01029710F422E030E0E09103
:100C6000D101F091D20190E080E0B0E0A0E03097B7
:100C700091F4009709F445C0821B930B84309105D1
:100C8000B8F58A819B816115710569F1FB01938338
:100C90008283FE0111C0408151810281138142177C
:100CA0005307F0F04217530799F4109761F012962A
:100CB0000C93129713961C933296CF01DF91CF912C
:100CC0001F910F9108950093D1011093D201F4CF99
:100CD000009719F04817590718F4CA01BD01EF0130
:100CE000DF01F801C4CF9093D2018093D101D1CF1D
:100CF000FE01E80FF91F21933193029799838883AE
:100D0000DCCF8091D3019091D401892B41F4809163
:100D10000201909103019093D4018093D3018091BB
:100D2000000190910101009741F48DB79EB7409169
:100D3000040150910501841B950B4091D301509102
:100D4000D4014817590708F0B8CF841B950B8217B8
:100D5000930708F4B2CFB9016E5F7F4F86179707EC
:100D600008F4ABCF640F751F7093D4016093D30167
:100D7000FA0121933193A1CFCF93DF939C01009788
:100D8000E9F0FC01329713821282C091D101D09117
:100D9000D201DE0190E080E02097A1F48081918172
:100DA000280F391F8091D3019091D40182179307A6
:100DB00009F067C0F093D401E093D301DF91CF91A4
:100DC0000895DA01AE17BF0708F041C012964D91A1
:100DD0005C911397CD014115510599F7DC011396EC
:100DE000FC93EE9312974D915D91A40FB51FEA17F6
:100DF000FB0781F4208131812E5F3F4F240F351F87
:100E0000DC0111963C932E932281338113963C93FF
:100E10002E931297B0E0A0E08A819B810097B1F5F4
:100E2000FE0181919191E80FF91F8091D30190917A
:100E3000D4018E179F0711F6109759F51092D20121
:100E40001092D101D093D401C093D301B7CFB38313
:100E5000A28340815181240F351FA217B30771F47B
:100E60004E5F5F4F2D913C911197240F351F3183B9
:100E7000208312962D913C9133832283009709F0B1
:100E8000ADCFF093D201E093D10198CFDE01EC0118
:100E9000C3CF13961C921E921297D4CFAEE0B0E04F
:100EA000E4E5F7E00C94050A0D891E8986E08C8341
:100EB0001A8309838F89988D813020E8920710F07A
:100EC00080E090E801979E838D83AE01455E5F4F81
:100ED000698D7A8DCE0101960E9480074D815E81D9
:100EE00057FD0AC02F813885421753070CF49A0129
:100EF000020F131FF80110822E96E4E00C94210AD1
:100F0000AFE0B0E0E6E8F7E00C94F7097C013B01C4
:100F10008A01DC0117961C921E92169713968C91EB
:100F200081FFBEC19AE0292EFE0131964F01D70103
:100F300013969C91F30193FD859193FF81913F015D
:100F4000882309F444C1853239F493FD859193FFD8
:100F500081913F01853229F4B70190E00E9469092F
:100F6000E6CFB12C412C512CBFE1B51538F08B32B6
:100F700009F188F4803201F1833221F157FC3AC043
:100F800020ED280F2A3040F556FE1FC0B29C200DE0
:100F90001124B22E06C08D3291F0803379F7689417
:100FA00050F8F30193FD859193FF81913F018111E9
:100FB000DBCF20C0689451F8689452F8F2CF68945F
:100FC00053F8EFCF689454F8ECCF429C200D1124D5
:100FD000422E689455F8E5CF8E3229F456FCF7C0BE
:100FE000689456F8DECF8C3619F4689457F8D9CF48
:100FF0008836B9F2982F9F7D95549330C0F0833690
:1010000081F18337A1F1833509F05BC0D801CD9020
:10101000DD908D016B2D70E056FC02C06FEF7FEF0D
:10102000C6010E9453095C01689457F80AC00C5F1E
:101030001F4FEFE3E983AA24A394B12C6401E89441
:1010400057F853FE29C0342CA114B10451F53320B4
:1010500009F46DCFB70180E290E00E9469093A94EB
:10106000F6CFD8018C9189830E5F1F4FE4CFF80132
:10107000C190D1908F016B2D70E056FC02C06FEFD4
:101080007FEFC6010E945E095C01D9CFB70180E203
:1010900090E00E9469094A944A141B0409F0B0F7D1
:1010A000D2CFF60157FC859157FE81916F01B701B0
:1010B00090E00E94690931103A94B1E0AB1AB1088E
:1010C000C3CF843619F0893609F071C0F80157FE94
:1010D00067C061917191819191918F01E52DEF76BA
:1010E000DE2E97FF09C090958095709561957F4F92
:1010F0008F4F9F4F6894D7F82AE030E0A4010E94F8
:101100009909C82EC818AC2C5D2CD6FE0CC0E894EA
:1011100050F8CB1440F4D4FE05C0D2FC03C05D2DC2
:101120005E7E552EAB2C54FE93C0FE01EC0DF11DDE
:101130008081803309F085C0652D697E562E752D1E
:101140007870372E53FC93C050FE8DC0BC2CA41475
:1011500010F4B40CBA1854FE90C0B70180E390E0CC
:101160000E94690952FE07C088E751FC88E590E0BB
:10117000B7010E946909CB1408F48BC0CA94D12C22
:101180008FEFC81AD80AC80CD91CD6018E916D01F0
:10119000B70190E00E9469098C149D04B1F757CF04
:1011A00061917191072E000C880B990B96CFD52C6D
:1011B000E894D4F82AE0853729F1F52DF97FDF2E60
:1011C0008037A1F058F48835A1F08F36D1F0F701BF
:1011D000868197812F96E2E10C94130A8837B9F73C
:1011E000D4FE02C06894D2F820E10CC06894D4F810
:1011F000F7CF54FE03C02F2F2660D22E20E132E01D
:1012000002C028E030E0F801D7FE15C041915191AD
:10121000619171914C875D876E877F878F01A401F3
:101220006C857D858E859F850E949909C82EC8187A
:10123000E894D7F868CF81919191AC0170E060E0BB
:10124000E9CF52FC02C0A3947ACFA394A39477CFA2
:10125000852D867809F473CFF6CFB70180E290E050
:101260000E946909A394A414C0F3312C74CF342CC8
:101270003A18A41408F46FCFF8CF852D867809F4B6
:101280007ACF8BE251FE80E257FC8DE2B70190E00D
:1012900070CFB70180E390E00E946909BA946BCFE8
:1012A0008FEF9FEF97CFFC010590615070400110C8
:1012B000D8F7809590958E0F9F1F0895FC0161507F
:1012C000704001900110D8F7809590958E0F9F1F68
:1012D00008950F931F93CF93DF93182F092FEB01DE
:1012E0008B8181FD09C01FEF0FEF812F902FDF91C0
:1012F000CF911F910F91089582FF14C02E813F81DD
:101300008C819D81281739073CF4E881F981CF0150
:1013100001969983888310838E819F8101969F8394
:101320008E83E3CFE885F985812F0995892BA1F379
:10133000DACFFA01AA27283051F1203181F1E8945F
:101340006F936E7F6E5F7F4F8F4F9F4FAF4FB1E0B8
:101350003ED0B4E03CD0670F781F891F9A1FA11DB3
:10136000680F791F8A1F911DA11D6A0F711D811DB4
:10137000911DA11D20D009F468943F912AE0269F79
:1013800011243019305D3193DEF6CF010895462FD8
:101390004770405D4193B3E00FD0C9F7F6CF462FB9
:1013A0004F70405D4A3318F0495D31FD4052419322
:1013B00002D0A9F7EACFB4E0A695979587957795DF
:1013C0006795BA95C9F700976105710508959B0166
:1013D000AC010A2E06945795479537952795BA95EF
:1013E000C9F7620F731F841F951FA01D08952F92C8
:1013F0003F924F925F926F927F928F929F92AF92A5
:10140000BF92CF92DF92EF92FF920F931F93CF93F1
:10141000DF93CDB7DEB7CA1BDB0B0FB6F894DEBF88
:101420000FBECDBF09942A88398848885F846E84AE
:101430007D848C849B84AA84B984C884DF80EE80F8
:10144000FD800C811B81AA81B981CE0FD11D0FB601
:10145000F894DEBF0FBECDBFED010895F894FFCF25
:101460000000D501200057656C636F6D6520746FB7
:1014700020454345333837004D69647465726D20EB
:1014800044656D6F00493243203230783034204C4F
:1014900043440059696368656E67205169616E0055
:1014A000313A20436C6561722053637265656E004A
:1014B000323A204D65737361676573002074696DFE
:1014C0006573004543452033383720536563204119
:1014D000002020202020202020202020202020202C
:0A14E00020202020200025640000D9
:00000001FF
